:020000006F2867
:10000800FF00030E8301A7000A08A6008A017008F2
:10001800A000A109A20AA21C1528A3094030831632
:100028008106831640308106FD308B058312200837
:10003800F00026088A00270E8300FF0E7F0E0900B5
:1000480024308316031398009030831298003330BD
:0600580083169900080068
:10005E000C3083120313970006309200FA30831689
:08006E009200FB308705080039
:1000760083120313F101C830710203185228F201EA
:10008600F30107307302031D4A28D03072020318A9
:100096005028F20A0319F30A4428F10A3E280800F8
:1000A60083160313880183128801013083168600A4
:1000B600831286019A01A101A201A30183160117E9
:0600C60090308B040800DD
:1000CC00831203132808FA3C031C6E282808950099
:0200DC0008001A
:1000DE0024202F205320831287018230A80066200F
:1000EE00143086001A08313A031D83288230A80086
:1000FE006620143086003B201A08323A031D8D28E4
:10010E008230A80066200A3086003B201A08333A57
:10011E00031D96288230A800662086013B201A080F
:10012E00343A031D9D28803088003B201A08353A4A
:10013E00031DA7288230A8006620103086003B20C1
:10014E001A08363A031DB1288230A8006620043002
:10015E0086003B2023080319BC283C30A8006620EB
:10016E00803088000A308600B1282208193A031D13
:10017E00C62883168601831286018801C5282108A8
:10018E000319D1284130A800662080308800143031
:08019E008600C6287228D22851
:02400E004A2F37
:00000001FF
